:4000000000800020110000003D0700003D07000080B500AF024A034B1B68136000F098FBBC760040FA46004001000000002000400100000000200140010000000048004052
:400040000100000000480140010000000100000008000223000008760800032300001076080004230000287608000523000030760500062300002070050007230000307065
:4000800005000823000060700500FE230000707050000A22000020511000FE220000F05100020C220000000080010D220000000680050E220000000800020F220000000EF8
:4000C00000081022000000140002112200000040800012220000004380001322000000450004142200000046000215220000004C1000FE22000010500600172300006052C5
:400100002000FE2300007064800019230000000280001A230000800280001B230000000480001C230000800410001D230000005080001E230000804580001F23000000447C
:400140008000202300008044800021230000800780002223000000058000232300008005800024230000800D800025230000000380002623000080038000272300008043A0
:4001800080002823000000428000FE230000804210B5054C237833B9044B13B10448AFF300800123237010BD7081FF1F0000000048430000084B10B51BB108490848AFF36C
:4001C00000800848036803B910BD074B002BFBD0BDE81040184700BF000000007481FF1F48430000C880FF1F0000000080B5BCB000AF02F0A5F907F1E00309221946002077
:4002000002F044FB0A2000F037FB07F1E003184600F09CFC0A2000F02FFB364801F0BAFF0A2000F029FB3449344802F0ABFAC7F8EC00D7F8EC30002B09D00A2000F01CFB7B
:400240000A2000F019FBD7F8EC0002F0D5F90A2000F012FB2A49294802F094FAC7F8EC0007F1C8031F221946D7F8EC0002F003FBD7F8EC0002F0C0F91F49224802F082FAEB
:40028000D7F8EC30002B11D00A2000F0F5FA07F1C8031F221946D7F8EC0002F0D7FB0A2000F0EAFAD7F8EC0002F0A6F91249164802F068FAC7F8EC00D7F8EC30002B11D063
:4002C0000A2000F0D9FA07F1C8031F221946D7F8EC0002F0BBFB0A2000F0CEFAD7F8EC0002F08AF90A2000F0C7FA00231846F037BD4680BD4C43000050430000CC80FF1FEA
:4003000054430000D880FF1FE880FF1F80B584B000AFF860B9607A607A68B968F86804F007F800BF1037BD4680BD00BF80B483B000AF0346FB71FEE780B483B000AF434B18
:4003400000221A60424B10221A70424B01221A70414B00221A70414B4FF4A0721A80404B01221A703F4B03221A703F4B3F4A92B21A803F4B47F608021A803E4B00221A8099
:400380003D4B4FF480421A803C4B09221A703C4B0B221A703B4B16221A703B4B18221A70BFF35F8F394B01221A70BFF35F8F00BF2A4B1B889BB2002BFAD100237B600DE094
:4003C0007B68DA00324B13441946324A7B6852F823309BB20B807B6801337B607B68272BEED9BFF35F8F294B01221A70BFF35F8F00BF294B1B78DBB203F00103002BF8D1AC
:4004000000BF264B1B78DBB203F00103002BF8D100BF234B1B78DBB203F00103002BF8D100BF204B1B78DBB203F00103002BF8D100BF1D4B1B78DBB203F00103002BF8D1E2
:4004400000BF0C37BD4680BC704700BF9081FF1F00760040107000401970004000780040027800400378004004780040500000000678004004760040067600402970004011
:40048000397000406970004079700040147000400C78004058430000187000402870004038700040687000407870004080B582B000AF434B1B78BB70424B00221A80424BEE
:4004C00058221A70414B02221A704FF0402308221A703F4BF3221A70394B03221A703D4B84221A703C4B05221A703C4B7B6006E04FF4F07000F0E4F97B68013B7B607B6887
:40050000002B06D0344B1B78DBB203F02003002BEED02B4ABB781370314B03221A70314B314A1278D2B21A70304B08221A80304B41F251221A800023FB7019237B6014E0A4
:40054000FB785B00DAB22B4B1B78DBB203F00103DBB21343DBB203F00303FB704FF4F07000F0AEF97B68013B7B607B68002B02D0FB78032BE4D17B68002B02D10320FFF75C
:40058000D5FE1D4B4FF480721A801B4B07221A701A4B00221A701A4B48221A70164B00221A70184B02221A70174A174B1B78DBB243F00103DBB2137000BF0837BD4680BD28
:4005C000984600408040004082400040004300400A4300400943004008430040A086010000420040A14600400801004922420040204200402542004004400040064000409B
:400600000840004001400040A243004080B483B000AF0B4B1B78FB710A4AFB7903F00703DBB21370084AFB791B09DBB21370074B44221A7000BF0C37BD4680BC704700BF59
:40064000CF0100496E5800406F5800407658004080B500AF72B62A4A294B1B78DBB243F00403DBB21370FFF767FE264A254B1B78DBB243F00203DBB21370234A224B1B78D8
:40068000DBB243F00203DBB21370204A1F4B1B78DBB243F04003DBB213701D4A1C4B1B78DBB243F01003DBB21370082219491A48FFF72CFE082219491948FFF727FE082267
:4006C00018491948FFF722FE184A184B1B78DBB243F00803DBB21370154B61221A70FFF7E5FE134B81221A70124B01221A70FFF78DFF0E2205491048FFF708FE00BF80BDC4
:40070000E84600400350014013500140A0430040C2430040380800480251004040080048C25100404808004812510040224300400048004004000840B043004080B500AFE2
:4007400003F0CAFD03461B680C2B00D1FEE7FEE780B586B000AF224B7B61224B3B61204B7B6135E03B691B68FB603B695B68BB603B699B683B6000237B600CE0FB681A6844
:40078000BB681A60BB680433BB60FB680433FB607B6804337B607A683B689A42EED13B69DB683B6000237B6008E0BB6800221A60BB680433BB607B6804337B607A683B6807
:4007C0009A42F2D13B6910333B617B69013B7B617B69002BC6D103F085FDFFF707FDFEE7010000009046000080B582B000AF184B184A1A60184A184B1B6843F40073136050
:4008000000237B600FE07B68032B04D8134A7B6852F8233000E0124B12497A6841F822307B6801337B607B682F2BECD90E4B1B78DAB20E4B1A700E4B0A4A1A60FFF708FF89
:400840000C4B00221A6000BF0837BD4680BD00BF0CED00E00004FA0514ED00E0000000003D0700000080FF1FBC760040C480FF1F08ED00E0C080FF1F80B582B000AF7860F4
:4008800008E00C4B1B68184600F01AF87B68A3F500437B607B68B3F5004FF2D8064B1B687A6802FB03F3184600F00AF800BF0837BD4680BD0081FF1FF880FF1F000000006D
:4008C0000230800803D000BF01380046FCD17047EFF3108072B6704780F31088704700BFF0B505468DB0002800F0248100210C22684601F033FB00210C2203A801F02EFBBD
:400900000021142206A801F029FB002328460B9301F05DFC00286C46C0F20C81284601F069FC2846694601F02BFD0028C0F20281824B019903F1480218681E46884202D887
:400940000C339342F8D1B388019F0B96B7FBF3F7384600F039F9BDF808100446C900784301F078FB202C4FEA4000B3680CD021301A461446D218D11A8142FAD9241A5A1EFB
:4009800022421DD0E4181BE01C4601301A460127D118824202D801370A46F9E70198B188C31A9A1AB2FBF1F0BDF808104001C90001F050FBB36840005F433F1AADF8107066
:4009C000019B47F6A7721B1B934201D801220EE0B3F5803F01D2042209E0B3F5800F01D2062204E0564A934294BF0B220C228DF82020544A019E0693079402F15000176896
:400A00001146B74202D808328242F8D1621E0879D2184B79ADF8000000FB03F1B4FBF1FC01FB1C4EADF824C0B2FBF1FC01FB1C21BEFBF3FEB1FBF3F18DF821E08DF82610A9
:400A4000B4FBF3FEB2FBF3F103FB1E4403FB1122013401328DF822408DF82720ADF828C0ADF8023001F030FD0446002862D0364B00271A8A002101F071FA84F8BE719DF86A
:400A8000212004F5DE7384F8BF21BDF824009DF8221000F4407001F03F01033341EA90015970BDF824105A1C5170531C9DF820205E1C5A709DF82620731C7270BDF828103E
:400AC0009DF8272001F4407102F03F0242EA91025A70581CBDF8283043700799023001F0DFFA06F10800069901F0DAFA04F5FF704AF6552101F0DEFA2846394622463B46C8
:400B000001F008FCB84214BF4FF0FF363E46204601F0F0FC76B94FF40073ADF80E300B9B0CA99B88284621F8243DCDF814D002F017FA01E04FF0FF300DB0F0BDF8430000EA
:400B4000FF03FB0040440000B891FF1F10B5002101F0CCFEBDE81040FFF7C2BE0C2802D0102805D102E001EB510070474800704788007047036840689B685B6AB0FBF3F0F0
:400B8000704710B5C46C436CE4B199421AD3E318994217D2013B99420CBF4FF0FF31013172B190F836300C2B02D0102B05D102E00905090D03E089B201E021F070411160D8
:400BC000012010BD002010BD40F6F473984201D80C2070474FF6F473984294BF102020207047027F8368023902FB01307047431EDBB21F2B13D92F2811D007D826280ED0F4
:400C000002D8222809D10AE02A3804E03A2804D33F2804D95B38022801D90120704700207047034638B30B2A01DD0B2200E0013A00201CE0082809D191F808C0BCF1200FE1
:400C40000DD04FF02E0C03F801CB08E038B991F800C0BCF1050F02D1ACF1200C04E011F800C0BCF1200F01D003F801CB01309042E0DB00221A7070472DE9F04788B005AE5E
:400C800004460D463046114600229A469DF84490BDF84C80BDF8507000F0BEFC08B1002413E020462946524600F0AFFD044660B1129B31460093109A4B46CDF804800297B7
:400CC00000F066FF284601F029FC204608B0BDE8F08710B59DF80C400394BDE8104000F079BD00002DE9F04F144E87B0109DDDF848809DF84440376800950194CDF8088022
:400D000005937F68934682468946B84732680C4BDDF814C09A420DD060B9504649465A46634610951194CDF8488007B0BDE8F04FFFF7CFBF07B0BDE8F08F00BF0481FF1FB8
:400D40009044000070B5C37A04460B7010300D4601F0B4F9064604F10E0001F0AFF940EA0640686004F1120001F0A8F90004A86004F1180001F0A2F9064604F1160001F0A1
:400D80009DF940EA0640E86004F11C0001F07DF9286170BD2DE9F845038A04460E46924687692BB907F118002146626900F004FC38465146224600F087FC0546204600F0CA
:400DC00005FCD5B12B78C3B1E52BF1D095F80B80B8F10F0FECD018F00808E9D170692946B269FFF71EFF28463146FFF7ABFF238A404601332382BDE8F8854FF0FF30BDE8DB
:400E0000F885022201F0E4BC2DE9F74F04460D461E461746002A00F09B8090F836001146FFF79CFEB4F81EA0A36A20FA0AFA9A45814680F08D80638E04F118089A442846E2
:400E400051464246FFF7DDFF284601F0E8FC6B7B002B7DD1A38B013B09EA0309AB681FFA89F909EB030B26B9226C974203D2276401E07A1C226494F83620102A0AD0202AE3
:400E800011D1584601F001F931460746584601F007F94EE0584601F011F9B1B20746584601F008F945E02846019301F037FB019B17F0010F19F803701CD007F00F0242EACC
:400EC000061209F80320A38B013B994502D00BF1010309E028460AF101014246FFF791FF284601F09CFCAB681A78120142EA171732091DE009F80360A38B013B994502D07B
:400F00000BF1010309E028460AF101014246FFF778FF284601F083FCAB681A7802F00F0147EA0127310A22F00F0201F00F010A431A70284601F0F2FAE36BB3F1FF3F09D000
:400F40000FB10133E3632EB1E36B013BE36301E0012000E00020BDE8FE8F6FF07043FFF753BF70B5C36C04460E4693B1002506E0AA1820463146531CFFF746FF0135E36C2B
:400F8000626C013B9D42F3D320463146AA18FFF7E4FF00236364E364A364236570BD70B506460D461C460AB1FFF72EFF304629462246BDE87040FFF7D0BF2DE9F04790F81D
:400FC000366005460C46304611469146FFF7C6FDB5F81E80AB6A20FA08F89845824602D30020BDE8F0876B8E05F118079844204641463A46FFF705FF204601F010FC18B1B4
:401000004FF0FF30BDE8F087AA8BA168013A0AEA020A1FFA8AFA92450AEB01031AF8015001D0013309E0204608F101013A46FFF7E8FE204601F0F3FBA36818780C2E45EAE9
:40104000002009D0202E0FD15D7840EA05409D7840EA0560BDE8F08719F0010F02D00009BDE8F0870005000DBDE8F0872DE9F34190F83630144603FB02F7828B8846D200D1
:40108000511E0F40D71B0546B7FBF3F7002618E00E4B93F87C30022B05D12846214601AAFFF76FFD28B9284641462246FFF785FF0190019B0134A34205D10136B6B2013F52
:4010C0001C46002FE4DC3046BDE8FC81B891FF1F2DE9F34105460E46144698461F681CE0114B93F87C30022B05D12846214601AAFFF747FD28B9284631462246FFF75DFF2C
:401100000190737B0BB100240BE0AA6B019B0132934204D81BB1013F1C46002FE0D1C8F800702046BDE8FC81B891FF1F73B504680E4623681BB9FFF71DFD013039E0FFF7CC
:4011400019FD236998423CBF4FF0FF3323612369B3F1FF3F04D12268013323616261E3832169E28B451A954234BF2B4613463BB16069C918C018D21A60612161E283ED1A62
:401180000DB9284615E002AB43F8045D31466269A068FFF79DFF6061019B21690246C91A4D19256123B9A0683146FFF75FFFE08301987CBD13B502AC44F8043D2346FFF7AD
:4011C00087FF019B002B18BF00201CBD2DE9F0410746884615461E460024384641462A460123FFF7E7FF30B1BA6B0134944201D80546F2E7002406B134602846BDE8F08117
:401200002DE9F84504460E4615461F46002B36D01C4B93F87C30022B31D190F8368011464046FFF79BFCB4F81CA00AF1FF3A2AEA000A4FEACA0ABAFBF8FAAA44A8460EE01F
:40124000204631464246FFF7B8FE50B9636C0BB9C4F84480A36C08F101080133A364D045EED9A36C5BB127653B685A6922B1204631462B46FFF7C8FDE36C0133E364BDE8C1
:40128000F88500BFB891FF1F2DE9F8459846274B054693F87C300F46022B1646846B19D1036D984503D0836C0BB1FFF75AFEB8F1000F0FD02B6D43450CD1EB6CAA6C9A42B9
:4012C00004D96C6C1C190133EB642CE028463946FFF747FE012E04F1010A01D9564505D92E6C012E01D9564500D902263446284639462246FFF761FE50B101345445F6D9CA
:4013000002240DE0284639462246FFF756FE30B92846394622464346FFF772FF03E00134B442EFD300242046BDE8F885B891FF1FF8B507460E461546FFF7A6FF044628B183
:40134000384631462A462346FFF729FE2046F8BDB2F1FF3F73B504460D4614D0561A013611D001F04DFA084B00211A8AA06800F0F5FD022300936068A3682946324600F0B9
:40138000BFFF0023E3737CBDB891FF1F2DE9F84F984690F8363004460C2B0D4616465AD04FF0FF3AD1463CE094F836003146FFF7D5FBB4F81CB0678E0BF1FF3B10EA0B0B76
:4013C000E38B1DD1D840013F3F1802222846394601F0FEF9A38BAA689B0852F80B1079B9013B0BF1040BF8D13BE0494628465246FFF7AEFFB946BB46284601F092F8DA4603
:401400002946324601232046FFF7D4FE29460746324620460023FFF7F7FC2FB108F1FF383E46B8F1000FBFD1284649465246FFF78FFF13E02946324601232046FFF7BAFEC6
:4014400029460746324620460023FFF7DDFC2FB108F1FF383E46B8F1000FEBD14046BDE8F88F0AF1010B5F45BFD1C5E72DE9F845044601F029F8054608B9044696E020465E
:4014800000F06AFF4B4E338A834208D338B1002120462A460B4600F0CCFE002804DA284601F028F8002481E005F5FF7000F006FE4AF65523984275D105F10B0000F0FEFDC7
:4014C00010F47E4F07466DD0338A83426AD32B7C022B67D16E7B002E64D000213C2204F1180000F03BFD05F1130000F0E7FD804620B905F1200000F0C8FD804605F11600AE
:4015000000F0DCFD824680B905F1280000F0D6FD10F08F0F46D105F1240000F0B6FD824605F12C0000F0B1FDE062022384F83530C4F828A0C4F8188084F8346005F10E00D2
:4015400000F0BCFD608605F1110000F0B7FD638E94F83520208602FB0A3A7B099BB2B0FBF3F05044A7832062092301229A40BA4201D1E38302E00133102BF6D17743C0EBFF
:401580000800B0FBF6F0A0636762FFF71DFB4FF0FF33202884F8360018BFC4F82CA0E363012400E00024284600F0A4FF2046BDE8F88500BFB891FF1F00238B60837F202B75
:4015C00001D102B942694A600A60704783680133836070472DE9F0410C46202105461F469DF818604FF0000800F0B8FC10E014F8080036B9E52804D1B8F1000F01D1E03836
:4016000002E000F020FDC0B205F8080008F10108B845ECDBBDE8F0812DE9F74506460D4608462849002A14BF92464FF0FF3A00F0CBFC804650B930462946022200F0B3FE3B
:40164000B01C2021092200F089FC37E000274FF0FF3415F80780B8F1000F01D0574505D1B4F1FF3F08BF3C4664B925E04046FFF7BEFA08B3B8F12E0F08BF3C4601370D2F9E
:40168000E7D119E0082C17DC3F1B042F14DC30462946082223464FF00008CDF80080FFF799FF0123611C009306F10800691803227B1EFFF78FFF01E04FF001084046BDE8F9
:4016C000FE8500BFA04400002DE9F74FD2F808B0436A4FEA4B18B8FBF3F8D368054698450E461446D2F8009001D20023D360B5F81EA0E368AAF1050A0BB9D4F804902BFAC2
:401700000AF7B9F1000F17D095F83420B8EB0303019206D04A4628463146FFF74BFD814640B3494605F11800FFF75BFA019B591E01EA0707C11906E02B8E43FA0AF39F4220
:4017400018D2E96A79183046C4F80090C4F80C80012201F03DF8304601F061F850B9013000FA0AFAB3680AF1FF3A0AEA0B0B03EB4B1000E00020BDE8FE8F2DE9FF410746D9
:401780000E4601A811461A460A9D9DF82C40FFF743FFC8B9384631462A46FFF795FF8046A0B1037883B101A90B2200F0C7FB38B998F80B3004EA0302A24201D1082B05D168
:4017C0002846FFF703FFE5E74FF00008404604B0BDE8F0812DE9F04587B002AF04460E46154698469DF83CA039460E9A1830FFF7E3FE204631462A4643460097CDF804A089
:40180000FFF7BBFF07B0BDE8F0852DE9F04500F1180785B005460C46384669469246FFF7CBFE284621466A46FFF74EFF06466846E846FFF7CBFE002E37D1BAF1000F02D1C4
:401840002B8E002B35D12146009A00232846FFF7BDFC2146024600232846FFF769FD8046204600F0D8FFB8F1000F22D0AA8B0021A06800F073FB38464146FFF7B2F995F815
:40188000347000257E1E361808E031462046012200F09EFF204600F077FF013E01357B1BB3F1FF3FF1D1A66803E033780BB1E52BB7D1304605B0BDE8F08538B504461A30CF
:4018C00000F0FCFB054604F1140000F0F7FB45EA004038BD2DE9F0451D4685B007460E462A6010465C21904600F0B9FB4FF0000A0446A04508D108F10108C5F800804046F6
:401900005C2100F0ACFB044694B1C8EB0403002B0EDD10220192103A0292384631464246CDF800A0FFF7DEF970B1FFF7C6FF824628685C2100F093FBA04604460028D8D1B2
:401940000C9B0130C3F800A005B0BDE8F085F8B505460C461E461746DAB16FF01A031370084600F0DBFD16B94FF47A7608E007F11C0000F08AFB6B6A5E1E3618B6FBF3F60E
:401980003846FFF79AFF2146024633462846FFF7FDFC607BF8BD00002DE9F04FD1F8008093B0D8F808700BAD044608930E464FF0FF333946284609920F939DF870A000F0BB
:4019C000EBFD10AB009338462946224611ABFFF781FFD0B1F27A109B07920FAA00930292002338462946119A0193FFF77BF9044680B1C37A13F0100F07D10D9BDDF82CB055
:401A0000C3EB00094FEA691906E0284600F0FAFE0125A3E083468146099B002B3CD0002C33D0524B5D6912E02B687BB1AA7A6AB19A8B4A450AD19A695A4507D19B68BB4259
:401A400004D14FF6F772328100257EE0ED68002DEAD10DF12C0C6146384622460123CDF818C0FFF774FFDDF818C018B14FF0FF3333816AE03E4B1B68DC6824B13846614654
:401A8000109A0F9BA0472C4606E0BAF1000F03D1089A002A44D065E0089BEBB1CCB1E37A13F0010F0BD0079A12F0150F07D04FF6FA733381BAF1000F01D1012500E000251E
:401AC0002046FFF7FAFE074604F11C0000F0DDFA29E0BAF1000F45D0BAF1010F01D000251BE0ECB901F0DCFB214B20221B68019282B2000C03920490009402949D683846A2
:401B00000BA9119A109BA84750B10D9ADDF82CB0C2EB00094FEA6919254628462F4602E00125002007464FF0FF33C8F81030C8F818B0A8F81C90079AC8F8040012F001036F
:401B400008BF1846C8F800707060B6F908300BA835EA230528BF012500F054FE284613B0BDE8F08F01255046DCE700BFB891FF1F0481FF1F70B505460C461A3089B200F03C
:401B800099FA05F11400210CBDE8704000F092BA2DE9F0470446BDF824700D469146002120229A46BDF82860DDF8208000F0D6F90B222046294600F0F6FB04F10E003946A7
:401BC00084F80BA000F076FA04F11000314600F071FA04F11600394600F06CFA04F11800314600F067FA20464946FFF7C3FF04F11C004146BDE8F04700F052BA07B542684F
:401C000003460AB910460AE081680020009048681968DB6800F052FB003818BF01200EBD2DE9F047046805460F46A668FFF77EFA81468246002841D0D4F80080B8F1000F72
:401C40001BD14246304639462B46FFF71DFB0246D8B11C4B6061C4F8108093F87C302060022B07D030463946FFF777F910B10120BDE8F087B9F1010A20D0304639466269BE
:401C80002B46FFF701FB804628B94FF6FE732B810130BDE8F0870B4B93F87C30022B05D03046394662694346FFF779F92369C4F8148001332361BAF1010ADDE70020BDE858
:401CC000F08700BFB891FF1F2DE9F041836804460D4608460122A1699E8B00F079FD2846B4F81C80AF6800F09AFDF8B9013E06EA4816B6B2BE1906F11C00616800F0D0F908
:401D000021683046FFF736FF01F0CAFA0446A1B206F1160000F0CEF906F11800210C00F0C9F92846BDE8F04100F075BDBDE8F0817FB50668B0F90830B568C3B9C37A13F09D
:401D4000110F14D02946684600F026FC30466946FFF7BAFF064B6C4693F87C30022B03D128466946FFF7FDF8684600F04BFD7FBDB891FF1F03682DE9F04F9F68038995B0F8
:401D800001339BB2012B04460E46059201D90025CEE0394610AD0CA800F0FEFB3946284600F0FAFB039626680023D6F808909A4609F118010791D9F82420059906924FF024
:401DC000FF32099308920A950291049320460CA9FFF726FF38B108A8FFF710FF5546002818BF00258FE03269069901324A43B9F81CB063680BF1FF3BD21A0BEA030B029BAD
:401E00000798934228BF134601937169FEF7E9FE99F83430B9F81C206768013BB7FBF2F703EA0707C719B9F81C300199CBEB03058D4228BF0D469D4228D0BBF1000F03D17D
:401E4000626873689A420FD00DF1400840463946002200F0BDFC404600F0E1FC20B14FF6F9725546228154E01298039958442A460DF1400800F097FA40463946002200F076
:401E8000A7FC404600F080FC90B141E0099B089A9A1897420AD008A8FFF7B0FE002837D101230993039B08970B9301E001330993029B03995B1B019A029363684919521B37
:401EC000AA44ED186560736803919D42019207D91BB1194B93F87C300BB9012104917560019A1AB101374FF0000B9CE7029B002B7FF46CAF08A8FFF781FE0499554600286C
:401F000018BF002529B1304610A9FFF7DDFE00E05546059A954205D0B4F9083013B94FF6F87323810CA800F06DFC10A800F06AFC284615B0BDE8F08FB891FF1F10B500233F
:401F400008E0C45C11F803C0013A0133644501D0012010BD002AF4D1104610BD70B5034602E003F8011C013A1C4622B103F003050133002DF5D193081ED04FF001354D431C
:401F800008E044F8105C44F80C5C44F8085C44F8045C043B032BA44604F11004F1DC1C46002603E04CF80650013B0436002BF9D102F003020CEB8404002302E0E154013A29
:401FC0000133002AFAD170BD002310F803C0CA5C624501D0012070470133002AF5D110467047002300E00133C25C002AFBD11846704710B500230BE0C45C11F803C064452E
:4020000001D0012010BDC4186478013314B1013A002AF1DC002010BD10B5002302E0C454013A013303EB000C0AB9002308E0CC5C002CF4D1F9E700210CF80310013A013358
:40204000002AF8D110BDA0F16103192B98BF00F0DF00704701384018B0FBF1F07047C9B203E00BB918467047013003788B42F8D1704742780178431C42EA01205A789B78C2
:4020800042EA002043EA002070478378C27803EB0222437803EB0222037803EB0220704703460A0A03F8011B42700A0C090E5A70997070470170090A41707047427803787C
:4020C00043EA022070470000094A0A4BC11C10B5146821F0030118680919814201D9002010BD11609A685868013220189A6010BD3892FF1F9481FF1F08B5FFF7E5FF00B903
:40210000FEE708BDFFF7E0BF30B1044A9368013B93600BB9024A1360704700BF9481FF1F3892FF1F014B5860196070479481FF1F38B50546FFF7E0FF002104462A46FFF7AE
:402140000DFF204638BD000010B5084CA37C0BB1002010BD4FF40073238201F091F8A37C012043F00103A37410BD00BFB891FF1F13B501A900F0BAFB044640B100F03FFC44
:40218000032804D12046019900F0EAFC01E04FF0FF301CBDFFF7ECBF08B583680BB10020984708BD08B583680BB10120984708BD10B504680079A468A04710BD37B59DF844
:4021C0001850046800790095E468A0473EBD08B5036800799B69984708BD036810B55B69044623B10079984708B1002000E00120607110BD10B5437904460BB9FFF7EDFF33
:40220000607910BDF7B504461F460E461546FFF7F1FF2046FFF7C6FF2A463146012320460097FFF7C5FF05462046FFF7B5FF2846FEBD10B504690919BDE81040FFF7E2BFC1
:402240002DE9F341044615461F460E469DF82080FFF7D0FF2046FFF7A5FF2B4631463A462046CDF80080FFF7A3FF05462046FFF793FF2846BDE8FC8130B504699DF80C5005
:4022800009190395BDE83040FFF7DABFF7B5044615461F460E46FFF7ADFF2046FFF782FF0023009331462B463A462046FFF786FF05462046FFF770FF2846FEBD30B50469A7
:4022C0009DF80C5009190395BDE83040FFF7DEBFF7B5044615461F460E46FFF78BFF2046FFF760FF0123009331462B463A462046FFF764FF05462046FFF74EFF2846FEBD4B
:4023000030B504699DF80C5009190395BDE83040FFF7DEBF73B504460E461546FFF76AFF2046FFF73FFF00232A460093314601332046FFF743FF05462046FFF72DFF002D6F
:4023400014BF4FF0FF3000207CBD10B504690919BDE81040FFF7DEBF30B5054685B0FFF749FF2B6828791C694FF47B71002201ABA04708B1002001E0BDF80C0005B030BD8A
:4023800070B506460D46FFF735FF336830791C694FF47B7100222B46A047002814BF4FF0FF30002070BD11F0030F70B584460B4632D110F0030F2FD195100446AC4611E0CD
:4023C00053F8106CACF1040C44F8106C53F80C6C44F80C6C53F8086C44F8086C53F8046C44F8046C10341033BCF1030FE8D8AB081B0100EB030CCB1815F003050AD028465D
:4024000000215C584CF8014004310138F9D1AD00AC445B1902F0030213F0010F19462FD11CF0010F60462BD15410254610E031F8086C043D20F8086C31F8066C20F8066C84
:4024400031F8046C20F8046C31F8026C20F8026C08300831032DEAD8A108C9005B1814F003048C440AD0204600215D5A2CF8015002310138F9D16400A4441B1902F00102C3
:40248000614610E013F8040C043A01F8040C13F8030C01F8030C13F8020C01F8020C13F8010C01F8010C18460433032A8C4601F10401E7DC32B10023C15C0CF80310013307
:4024C0009342F9D170BD0000094B10B5D8689A68002308E0114652F8084B1CB901230B60486810BD01338342F4D3002010BD00BFB891FF1F084B30B50022DC689B6808E079
:402500005D6819460833854202D100230B6030BD0132A242F4D330BDB891FF1F01230373704700230373704710B1002282720260704718B1027B0AB1013A027370470000FC
:4025400038B5FFF701FE20B3124C4200E2600001FFF7EEFD238AA060E0685843FFF7E8FDA568E168228A002304E005EBC3046060013380188B42F8D31020FFF7D9FD054C46
:4025800060612820FFF7D4FDA37CA06143F00203A37438BDB891FF1F38B510220D4600210446FFF7DBFCFFF78FFF08B9013038BDA0604FF0FF33002065602360A07338BD8A
:4025C00038B5837A044643B10568FFF7B1FB2846FFF7AFFF2046FFF7A7FF002038BD08B50368827A03B19B6822B11BB1FFF7E8FF002008BD012008BD08B901307047FFF7BA
:40260000EEBF000038B5104B9C69217B59B921606160A16004F110001422FFF79FFC237B013323730DE0656A45B92820FFF76AFD606218B129462822FFF790FC646A002C5C
:40264000E3D1204638BD00BFB891FF1F38B50E4B5C69A17AE56839B920461022FFF77EFC0123A372E5600CE045B91020FFF74AFDE06018B129461022FFF770FCE468002C5F
:40268000E7D1204638BD00BFB891FF1F2DE9F74F06460020884691469B469DF830A09DF83470FFF7AFFF054608B9044610E0FFF7CDFF044660B180F80B900560AE604046E2
:4026C000214652463B46CDF800B0FFF765F930B12046FFF729FF2846FFF72BFF00242046BDE8FE8F2DE9FF410C461F4604A9002341F8043D15469DF8286000F0F7F880466E
:40270000B8B1039B0BB11B789BB1404600F077F900280EDD14F0150F01D0032809D1039939B1404622462B4600970196FFF7AEFF00E0002004B0BDE8F08100002DE9F34136
:402740000646884600240E4D404655F83410E700FFF73AFC10B9002C04DA0DE001340F2CF1D109E07D19A87929790090EA796B793046FFF7B7FF00E00020BDE8FC8100BF88
:40278000A4440000FFF7DABF10B5437B04460BB1012010BD40682168A268A37BFFF7D5FD10B10120607310BD207310BD10B5437B044663B9037B53B140682168A268A37B64
:4027C000FFF7C3FD08B1012363730023237310BD036870B5994204460D46164607D0037B0BB1FFF7E3FF00232560A673E37370BD10B50446FFF7ECFF0123E373237310BD8C
:40280000FFF7D4BF10B50446FFF7D0FFA068BDE81040FFF76FBE01230373FFF7C7BF10B50446407B08B1012010BDE37B5BB960682168A268A37BFFF7FCFC10B10120607306
:4028400010BD0122E27310BD30B592B188B1857A046875B16CB190F80BC01CF0080C04D14FF6FB720281604630BDBDE8304000F0C3BB002030BDFFF7E7BF08B5436813B9C7
:402880004FF0FF3008BD984708BD0000F8B50C461746154D002301E0AD6D01338342FBDB2B6828791B68984706460CB92046F8BDFFF797FB0530B84214DC22460020335C16
:4028C000013223540130315C0029F8D113464FF03A0C03F801CB2C7903303034547083F801C09970F8BD00BFD491FF1F2DE9F0470F463A210646FFF7B2FB044610B9344624
:40290000174D27E00378C6EB000A5BB114F8013F43B162783A2A05D1A3F130085FFA88F8023401E04FF000080D4D2B6828791B6898478146FFF755FB504508D14846314623
:402940005246FFF756FB10B92B79434502D0AD6D002DEAD107B13C602846BDE8F08700BFD491FF1FF8B5174C064694F85710A56D69B95C2201272046FFF7F0FA84F85770DD
:40298000A5653046FFF779FF00280EDA18E045B95C20FFF7B7FBA06518B129465C22FFF7DDFAA46D002CE0D10AE0074B26609A6F01329A670323207184F8577084F856308E
:4029C0002046F8BDD491FF1FB891FF1FFFF7CABF38B504460D46FFF7FAFB08B9013838BD2046FFF707FC204600F028FC2046FEF73DFD08B184F8555094F8550038BD90F849
:402A0000553023B990F8561009B1FFF7E1BF1846704730B51346BAB1B0B10268857A0AB1946804B900247DB172B16CB1C27A12F0100204D14FF6FA730381104630BD1A466B
:402A4000BDE83040FFF796B9002030BDFFF7E1BF2DE9F04F8BB01C4605460992079100F01FFC00228246214628461346FEF760FCDDF81CC0804608B9013867E0354B1FFA24
:402A80008AFB1B684FEA1A4A4FF0100900260090CDF804900296CDF80CB0CDF810A09F68284621466246099BB847002846D02046FFF734FD2046FFF7A3FEAA8B3146A068D9
:402AC000FFF74CFA414605F11800FEF78AF80890089920460122FFF78BFEA768424638464B461D490096CDF804B0CDF808A0FFF74FF8099A07F1200018494B460096CDF880
:402B000004B0CDF808A0FFF743F82046FFF778FEA0683146AA8BFFF721FA08E0089B2046F1180122FFF754FE2046FFF72DFE95F8343001369E42F1DB002007E02846214610
:402B400042460123FEF722FC6FF001000BB0BDE8F08F00BF0481FF1F4C4500005845000070B58AB0054604AC0E4620462946FFF713FD09AB009328462146324608ABFEF702
:402B8000A9FEB8B10898FFF72CFA98B1099B2846009321460023089A01930293FEF7A2F8064638B928460899099A2346FFF750FF002801DA4FF0FF3604A8FFF723FE30462A
:402BC0000AB070BD2DE9F04F8FB089469DF86010069207930991BDF86420BDF86C309DF8701005460B92BDF868800C930D91FFF7EEFA0028C0F27281002385F85530FFF793
:402C000063FC0446002800F06781AC4B1B8A4345C0F06281B8F1000F00F05E81079A06994FEAC803DFF8ACB2002A08BFFF22002908BF3F210A930C9F01230792AC46069144
:402C400002461C465D460C99EB688F422E7A00D13FB9202E03D0DDF82CA0012708E0374604E0202E02D0DDF82CA001E04FF0000A41464FEA4A1004920593CDF80CC0FFF7E0
:402C8000E9F9C7EB090B0999C0EB0B0B9BFBF1F070430A99FFF7DEF909994000C0EB0B0B9BFBF1FB06FB0BF00A99FFF7D3F9049A0890059BDDF80CC024B940F6F4718B452A
:402CC00007DD01E09B4504DA013C083DB4F1FF3FB9D114460021104642466546FFF73EF96FF01603204600F8033B08227449FFF793F904F10B004146FFF7DCF9099A04F1CA
:402D00000E0062733946FFF7D5F90223237404F111005146FFF7CEF9B9F5803F06D204F113001FFA89F1FFF7C5F904E004F120004946FFF7B5F96FF00703637504F1180049
:402D40000699FFF7B7F904F11A000799FFF7B2F904F11C002969FFF7A3F9202E21D06FF07F0384F82430A93384F8263004F127005449FFF795F9089B04F1160099B2FFF7BF
:402D800099F951490B2204F12B00FFF745F94F4B4F4904F136000C2E18BF19460822FFF73BF904F5FF704AF65521FFF783F90021284622460B46FFF7C8FA00284BDB202E19
:402DC00007D10621002328462246FFF7BEFA002841DB002142462046FFF7C0F8089902234FEA410B0093284639465A462346FFF787FA00282FDB6FF00703237007330C2E3F
:402E000018BFE3706370A3702846022339462246FFF79BFA00281EDB089A0223D11928462246FFF792FA002815DB204600214246FFF794F8BAF1000F11D001234FEA4A1256
:402E4000009328460BEB0701B2FBF8F22346FFF757FA002803DA2046FFF74CFB3CE02B6933B30D9B23B30021284622460B46FFF7C9F9E8B90C2E94F8C23102D0102E06D010
:402E800002E04FF0010909E04FF00B0906E0B9F5803F34BF4FF004094FF006094B4507D0002184F8C291284622460B46FFF732FA2046FFF71FFB002010E000BFB891FF1F7F
:402EC000E04500006745230174450000E9450000F2450000644500004FF0FF300FB0BDE8F08F00BFF0B58BB007AD044600210C222846FFF733F8204600F0A0F92046294686
:402F0000FFF73EFA23690BB163690893089911B94FF0FF3020E0BDF81E20BDF81C30BDF82460002000E001300C4D4FEAC00C05F11C0757F83070B942F5D80CEB050090F8CB
:402F40002050408C00950190002003900130049020460296FFF736FE0BB0F0BD6445000030B504468BB00D4600292FD0FFF72FF9002802DA4FF0FF302AE0204600F05EF912
:402F8000AA6807AB22B920461946FFF7F9F902E007CA83E80700236923B16369089A9A4288BF08932978BDF81E2000916988BDF81C300191BDF8241020460291A9880391C4
:402FC000A97904910899FFF7FDFD01E0FFF78AFF0BB030BD07B5426803460AB910460AE081680020009048681968DB68FFF744F9003818BF01200EBD2DE9F04F0368B0F92B
:40300000085095B0044689469F68002D40F0B78041685868814203D34FF0FF312181AFE0411A8A4228BF0A46029222B94FF0FF322281029DA4E01B68002B00F0A08039465D
:4030400010AE0CA8FFF7A8FA39463046FFF7A4FAD4F800B0029ADBF80870AA4607F118030693796A4FF0FF330591099508930A96049220460CA9FEF759F800286ED1DBF8CA
:403080001030059901334B43626804999B1A994228BF19460391BB8BDBF81410013B134006980193FDF79DFDF98B656897F8342035FA01F1013A019B02EA0101CDF81CB068
:4030C00000EB01081E46BB46BBF81C30039A9D1B954228BF15469D4211D010AF384641460022FFF775FB3846FFF799FB002835D11299484671182A46FFF755F912E0099BBC
:40310000089A9A1890450BD008A8FFF763FF00283AD10123CDF820800993CDF82C9001E001330993049B03995B1B04936368A9445B19491BAA446360039103D008F1010807
:403140000026C1E7049A5F46DDF81CB0002A90D108A85546FFF73EFFB0B900E05546029B9D4205D0B4F9083013B94FF6F97121810CA8FFF747FB10A8FFF744FB00E000257F
:40318000284615B0BDE8F08F0025EBE70378E92B01D101207047EB2B01D0002070478078902814BF00200120704708B500F5FF70FEF784FF4AF65523984214BF0020012010
:4031C00008BD01EB001000F5E370FEF75EBFF0B50D4685B01446064658B352B300210B46FFF710F8002824DB2046FFF7DEFF00B32046FFF7CBFF10B10024274616E0214679
:40320000FFF7DFFF074604F5E570FEF73EFF01A904463046FFF7B4F85CB157B1E219FF23120AB2FBF3F2029B9A4202D81DB12C6001E04FF0FF37384605B0F0BD73B50446AC
:40324000FFF78AF80646FFF73FF90C4B05461B8AB3420DD366B1204601A92A46FFF7B7FFB0F1FF3F04D02061019B6361002400E0FF242846FFF73EF960B27CBDB891FF1FF5
:4032800080B500AF4FF480510348FEF74BFF0348FFF79CFB00BF80BDA081FF1F4446000080B485B000AF0023FB810023BB8100237B8101233B810123FB800023BB80FB8959
:4032C0005B089BB21A46BB895B011A447B89DB0213443B603A89FB885B011A44BB885B0213441B043A6813433B603B6818461437BD4680BC704700BF4FF6FF7070470000D8
:40330000014B1868704700BFA091FF1F004870476446000000F098BD37B501220DF10701054600F0A9FD9DF80740FF2C14BF0A240724284601220DF1070100F09DFD9DF82F
:403340000700FF2803D1013CE4B2002CF1D13EBD37B50469857828460DF10701012200F08BFD9DF807300BB1002003E0013CF2D14FF0FF303EBD37B54FF0FF3305460C463C
:403380008DF8073006E028460DF10701012200F08FFD013C002CF6DC3EBD000038B5094C2368032B02DD4FF0FF3509E0DDB2013323601420FEF7BCFE04EB85046060857096
:4033C000284638BDA091FF1F08B5034B4FF400711B68984708BD00BF0881FF1F4FEAD20CACEBD103CCF10F0C10B501336044002410F801CB013B4CEA0424F9D101F0070381
:40340000511A02228A40DC40013A04EA020010BD7FB5130E85788DF80530130C01F03F018DF80630130A41F040018DF8073000238DF808208DF804101A4601A911F802C07F
:4034400000215B00DBB283EA0C0E1EF0800F18BF83F009030131082904D04FEA4C0C5FFA8CFCEEE70132052AE7D15B0043F001038DF809308678C4680122304603A900F082
:40348000FBFC9DF80C30FF2B04D00CB9FF2009E0013CF1E7284601A9062200F009FD2846FFF73AFF04B070BDF7B5847806460F4620460121FFF75FFF204600F011FC3046B2
:4034C00009210022FFF7A4FF8DF8070028BBF6680546012220460DF1060100F0CDFC9DF80630FE2B06D0FC2B04D00135ADB2B542EFD112E00DF1070520463946102200F074
:40350000BBFC29462046012200F0B6FC29462046012200F0B1FC002500E0FF25204600F0F3FB20460121FFF726FF2846FEBD00002DE9F04F9B46494B89B003EB8003059261
:403540005C684A02029103924FF00309029AA578E678039B2846022E08BF13461E4600F0D3FB01212846FFF706FFBBF1010F0CBF4FF0110A4FF0120A284600F0B1FB2046FC
:4035800051463246FFF744FF002851D1059F5E46A378E268B44604924FF000081E460FE0012230460DF11F01CDF804C000F064FC9DF81F20DDF804C0FE2A05D008F10108A6
:4035C000049B9845ECD333E0284639464FF40072664600F051FC0222284607A900F04CFC9DF81C30384601939DF81D80FFF7ECFE4FF6FF729042019B0CD048EA0328404591
:4036000008D0BAF1120F13D120460C210022FFF7FFFE0DE0013E02D007F50077B8E7BAF1120F07D120460C213246FFF7F1FE01E04FF0FF36284600F067FB28460121FFF71B
:403640009AFE3EB1B9F1000F02D009F1FF397DE74FF0FF36304609B0BDE8F08FA091FF1F2DE9F04F99464C4B87B0029203EB80039DF840205D68009103926B78002B40F067
:4036800085804B0201930327009BAC78EE78019A2046022E08BF1A46164600F035FB01212046FFF768FEB9F1010F0CBF4FF0180A4FF0190A204600F013FB284651463246F4
:4036C000FFF7A6FE8DF81700002850D120460121FFF751FE029ECB46B8463046FFF774FE0DF11707BAF1180F0CBFFE23FC2301228DF817308DF81500030A394620468DF8F8
:40370000143000F0D5FB204631464FF4007200F0CFFB0222204605A900F0CAFB01222046394600F0A9FB9DF8173003F01F03052B1CD12846FFF70CFEC0B9039A0AB906F560
:403740000076BBF1010BC8D1BAF1190F474611D106A96FF00203204601F8013D012200F0A7FB2846FFF7F4FD20B100E047464FF0FF3600E00026204600F0C6FA2046012130
:40378000FFF7F9FD26B10FB1013F7DE74FF0FF36304607B0BDE8F08FA091FF1F2DE9F04F877887B0044638460D4600F099FA20463A210022FFF72CFE064638B1384600F0FF
:4037C000A3FA38460121FFF7D6FD58E00DF1140804224146384600F04FFB4046FEF749FC8046384600F090FA01213846FFF7C3FDB8F1000F28F07F02B8BF4FEA987BD2B2A0
:4038000040F272634FEA1828B8BF0BF0010B1FFA88F8002A14BF1A460022012111EA080F05D10136F6B24900102E89B2F6D140F27260824233460DD06422724302F5FA6254
:4038400008E011EA080F07D049000133013689B2DBB2F6B20F2EF4D964214B434FF6FE7103F5FA6302EA01014FF6FC72384603EA020200F0B5FA10F0FF0F40F099804FF0E8
:40388000FF3092E028467E217F22FFF7A7FD8246EB78DFF82C8103F0030203F0780308EBD30358F822101B7C3846594389B200F053FA0646002877D06B7803F00702DB1011
:4038C00003F00F0308EB82024344126A93F810800292B8F1000F67D0A978284603911C221A21FFF77BFD0190BAF1000F1FD1502153222846FFF772FD4FF0010909FA00F968
:403900002F2131222846FFF769FD1FFA89F982463E21284649224FEA5929FFF75FFD0AF1020A09FA0AF9013000FB09F910E0BAF1010F01D0012038E0284630214522FFF766
:403940004DFD4FEA8029BBF1000F01D00223E37008FB06F2029B0399B2FBF3F2642303FB01225A437343D208DB089A4294BFE260E360FA235E43019BF6089A400C21B24292
:4039800094BF2261266128460D22FFF727FD0546384600F0CDF94FF4007128436070A180C4F80890002000E0FF2007B0BDE8F08FE378A778012B3FF465AF4FF0000A67E792
:4039C000FC450000F0B5857887B004464FF4C871284600F0C1F9B0F5C87F00F2CC804CF25033E3600026284600F08EF90A212846FFF7C1FC624B93E8030001902846ADF87B
:403A0000081000F06DF9062201A9284600F050FA2846FFF781FC0746284600F075F901212846FFF7A8FC17F0010F03D10136052ED9D1A0E0284600F053F9082120464FF47F
:403A4000D572FFF7E5FC10F0040F52D0284600F05BF9A5784FF4FA66284600F041F9002237212046FFF7D4FC28460121FFF783FC292100222046FFF7CBFC0746284600F004
:403A800043F928460121FFF776FC17B90123E3701EE017F0040F01D1013EDDD14FF4FA66284600F01DF9012100222046FFF7B0FC0746284600F028F928460121FFF75BFCA8
:403AC0000FB9E77004E0012F55D1013EE8D152E001AD20462946FFF7E7FC00284BD120462946FFF75BFEC0B2002844D10123237043E00422A07805A900F0BEF9284600F005
:403B000003F99DF81730AA2B35D19DF8163003F00F03012B2FD1A5784FF4FA66284600F0DFF8002237212046FFF772FC28460121FFF721FC29214FF080422046FFF768FCDF
:403B40000746284600F0E0F828460121FFF713FC0FB1013EE2D101AE20463146FFF7A4FC48B90125E57020463146FFF717FEC0B208B9257001E04FF0FF3007B0F0BD00BFBB
:403B80003C46000010B5084B03EB80035C6823783BB9FFF7BFFB20B12046BDE81040FFF711BF4FF0FF3010BDA091FF1F38B51D46154BA1F57B7103EB80035C68072918D8F4
:403BC000DFE801F00A17171704041719204600211422FEF7C3F90CE0237833B92046FFF7F1FE10B14FF0FF3038BDA3882B81A3686B60002038BD2046FEF786FA024B00202C
:403C00001A68013A1A6038BDA091FF1F80B582B000AF0346FB71FB79002B11D1154B1B78002B1FD1134B01221A7000F053FA01213B2000F069FA00F033FA00F09FF911E001
:403C40000C4B1B78002B0FD10A4B01221A7000F041FA01213B2000F057FA00F021FA00F08DF901E000BF00E000BF00BF0837BD4680BD00BFB491FF1F80B584B000AF0346E3
:403C80000A46FB711346BB71FB79002B11D1BB79184600F0ADF900BF00F08EF9034603F00103DBB2002BF7D000F0BCF90346FB7311E0BB79184600F09BF900BF00F07CF99E
:403CC000034603F00103DBB2002BF7D000F0AAF90346FB7300BFFB7B18461037BD4680BD80B582B000AF0346FB71FB79002B03D1002000F0D5FA03E0002000F0D1FA00BF07
:403D000000BF0837BD4680BD80B582B000AF0346FB71FB79002B03D1012000F0C1FA03E0012000F0BDFA00BF00BF0837BD4680BD80B485B000AF0346FB71FB79002B02D154
:403D40000023FB6002E00023FB6000BFFB6818461437BD4680BC704780B584B000AF03460A46FB711346BB80BB88B3F5C87F03D24FF4C873BB8006E0BB88B3F57A6F02D99E
:403D80004FF47A63BB80BB885B00FB81FB8945F6C052B2FBF3F39BB2BB60FB79002B0CD100F098F9BB689BB2013B9BB20121184600F0AAF900F074F90CE000F08BF9BB68D9
:403DC0009BB2013B9BB20121184600F09DF900F067F900BFBB8818461037BD4680BD00BF80B485B000AF0346FB710B46BB8013467B80FB790033032B0FD8BB8840F6E442E9
:403E0000934207D87B8840F6E342934202D90123FB6012E00023FB600FE0BB8840F6E442934207D87B8840F6E342934202D90123FB6001E00023FB6000BFFB6818461437D8
:403E4000BD4680BC704700BF80B584B000AF0346FB71FB791846FFF7D9FEFB790033032B02D80223FB6002E00223FB6000BFFB6818461037BD4680BD90B585B000AF034617
:403E8000B9607A60FB73BC68631CBB60FB7BFF211846FFF7F1FE034623707B68013B7B607B68002BEFD100BF1437BD4690BD00BF80B584B000AF0346B9607A60FB73BB6868
:403EC0005A1CBA601A78FB7B11461846FFF7D4FE7B68013B7B607B68002BF0D100BF1037BD4680BD80B500AF084B0F221A7000F0A7F800F061F800F06DF8054B00221A7083
:403F0000044B00221A7000BF80BD00BF82640040856400408364004080B582B000AFFCF7D7FC0346FB71124A114B1B78DBB243F02003DBB213700F4A0E4B1B78DBB243F081
:403F40001003DBB213700C4A0B4B1B78DBB243F01003DBB21370FB791846FCF7BDFC00F01FF800F023F800BF0837BD4680BD00BF92640040956400409364004080B500AFE5
:403F8000064B1B78002B04D1FFF7ACFF034B01221A70FFF7C1FF00BF80BD00BFB591FF1F80B400AF00BFBD4680BC704780B400AF00BFBD4680BC704780B483B000AF044B17
:403FC0001B78FB71FB7918460C37BD4680BC70476564004080B483B000AF044B1B78FB71FB7918460C37BD4680BC70476364004080B483B000AF0346FB7100BF074B1B78C9
:40400000DBB203F00403002BF8D0054AFB79137000BF0C37BD4680BC704700BF656400404464004080B483B000AF044B1B78FB71FB7918460C37BD4680BC704754640040B1
:4040400080B582B000AF01E0124B1B78124B1B78DBB203F02003002BF6D1FCF739FC0346FB710E4A0D4B1B78DBB243F00103DBB213700A4A094B1B78DBB223F00103DBB274
:404080001370FB791846FCF727FC00BF0837BD4680BD00BF54640040636400409464004080B400AF094A094B1B78DBB243F00103DBB21370064A064B1B78DBB243F0010378
:4040C000DBB2137000BFBD4680BC7047A2430040B243004080B400AF094A094B1B78DBB223F00103DBB21370064A064B1B78DBB223F00103DBB2137000BFBD4680BC704733
:40410000A2430040B243004080B584B000AF03460A46FB8013467B7100F0B4F80346FB7300F0A4F80346BB81FA88BB899A4200F08880464B1B78DBB203F00103FB72FB7B2B
:40414000002B20D1BB89002B02D0FB88002B1AD1BB89002B0BD13E4AFB8813803D4A3D4B1B78DBB223F04003DBB2137069E0394A384B1B78DBB243F04003DBB21370344A58
:40418000FB8813805DE0FB7A002B33D0324B00221A70324B01221A70314B00221A70314A304B1B78DBB203F07F03DBB21370294B1B78DBB203F00803002B02D0FB88002BB6
:4041C00018D1294ABB891380234B07221A7000BF214B1B78DBB203F00103002BF8D11B4A1A4B1B78DBB223F00103DBB213701A4B00221A70154B1B78DBB203F00103002B71
:4042000013D0194AFB881380134A7B79002B01D0032300E00123137000BF0F4B1B78DBB203F00103002BF8D10BE0094AFB8813800649064B1B78DAB2FB7A1343DBB20B701E
:40424000FFE700BF1037BD4680BD00BFA24300408040004082400040014000401040004014400040084000400240004080B400AF034B1B889BB21846BD4680BC704700BF49
:404280008040004080B400AF044B1B78DBB203F00703DBB21846BD4680BC70478240004080B485B000AF0346FB710A4B1B78DBB223F00103FB730749FB7903F00103DAB2BE
:4042C000FB7B1343DBB20B7000BF1437BD4680BC704700BFC0510040014B1868704700BF6C81FF1F0E4B70B51E460E4C0025E41AA410A54204D056F8253098470135F8E728
:4043000000F0B4F9084B094C1E46E41AA4100025A54204D056F8253098470135F8E770BD7846000078460000784600008046000010B5431E0A44914204D011F8014B03F813
:40434000014FF8E710BD00000000000044697200770000007200000028000000300000003800000040000000480000004800000048000000480000009081FF1F9081FF1FEB
:404380009081FF1F9081FF1F9081FF1F9081FF1F9081FF1F9081FF1F9081FF1F9081FF1F9081FF1F9081FF1F9081FF1F0000004808020048080000488800004808010048ED
:4043C000880100482802004838020048B802004838030048B803004838040048B804004838050048B805004838060048B806004838070048B8070048FF3F000010000000F6
:4044000010000000FFFF01002000000020000000FFFF07002000000040000000FFFF1F002000000080000000FFFF3F004000000080000000FFFFFF034000000000200000AE
:40444000FF0F000002100000FF7F000002200000FFFF000004200000FFFF030008200000FFFF070010200000FFBF0F00103F0000FF7F1F00203F0000FFFF3E00403F000029
:40448000FFFF7D00803F0000FFFF7D00FF3F0000950D0000D30C0000790C0000000000002E2E00001C450000080001001E4500000A000100214500001401000123450000EB
:4044C00016010001264500001500010128450000170001012B450000180001002E4500001A000100324500001A000100364500001C010001394500001E0100013D4500003A
:404500001E010001414500001D000101444500001F000101484500001F000101720072620077007762006100616200722B00722B620072622B00772B00772B620077622B5F
:4045400000612B00612B620061622B002E20202020202020202020002E2E202020202020202020000C0000000000000010000000F50F00004E4F204E414D4520202020006B
:404580000001000001002000000200000100400000080000010080000010000001000001004000000200000100800000020000010000040004000002000008000800000219
:4045C0000000100010000002A0FE1F002000000240FD3F004000000200F5FF00800000024D5357494E342E3100464154313620202000464154313220202000000A0000001B
:4046000064000000E803000010270000000A0C0D0F14191E23282D32373C41508096980040420F00A086010010270000E8030000640000000A000000010000004000000092
:40464000009500000D3300009D3300003135000061360000AD3B0000853B000015330000013300006D6D630043000000F8B500BFF8BC08BC9E467047B5010000E9070000CF
:40468000F8B500BFF8BC08BC9E46704791010000A0460000C880FF1FA8000000D01000000000000046696C652E637376000000004469725C46696C65322E63737600000074
:4046C00046696C65332E63737600000000366E01C05D0000180000000000E02E90440000F932000000000000000000000000000000000000000000000000000000000000A6
:4047000000000000684600000000000000000000000000000000000000000000000000000000000000000000000000000000000000000000000000000000000000000000CB
:40474000000000000C81FF1F00000000000000000000000000000000000000000000000000000000000000000000000000000000000000000000000000000000000000008E
:4047800000000000000000000000000000000000000000000000000000000000000000000000000000000000000000000000000000000000000000000000000000000000F9
:4047C00000000000000000000000000000000000000000000000000000000000000000000000000000000000000000000000000000000000000000000000000000000000B9
:404800000000000000000000000000000000000000000000000000000000000000000000000000000000000000000000000000000000000000000000000000000000000078
:404840000000000000000000000000000000000000000000000000000000000000000000000000000000000000000000000000000000000000000000000000000000000038
:020000040003F7
:0200000480007A
:40000000000800000000000000649F000024FF4000776080C0640100801000E51F932060C0080400C04002027F648000C0080800000000649024400000800008FFF0000756
:40004000002800C000001001000000000000000000000000000000000000000000000228040400040000000100000000000000000000000000000000000000000000000050
:4000800000000000000000000801000000010000D0000C40DC01000024A21008000480001108226130100F00DC010000D400080021071ED80C01D000300080E00F3F40001E
:4000C000002002000000441000000000000000000000000000000000000000004000000004040004000000010000000000000000000000000000000000000000000000003D
:400100000000000000000000000000000D0000000D000000020008000D000000010002000200040002000D000D00000000000000000000000D0000000000000000000F004D
:4001400000008000000000002406500001CEFBBD3FFFFFFF2200F008040000000000000004000400000000010000C00040011011C001001140014001000000000000000025
:400180000000000000000000000000004B00240100040043000000EC0088000330000000042103020000000055000A120000000049E01600000000000000381007E0400F89
:4001C0000800200000004010000000000000000000000000000000000000000009000000040400040000000100000000000000000000000000000000000000000000000071
:4002000000000000000000000000000000000000000000000000000000000F00000000000000000000000000010000000000000001000100000000000000000000000000AC
:40024000000000100000000000000000000000100000000000000000000000000000000000000000000000000000000000000000000000000000000000000000000000005E
:40028000000000000000000000000000000000000000000000000000000000000100000000000000000000000000000000000000000000000000000000000000000000003D
:4002C00000000000000000000000000000000000000000000000000000000000000000000000000000000000000000000000000000000000000000000000000000000000FE
:4003000000000000000000000000000000000000000000000000000000000000000000000000000000000000000000100000000000000000000000000000000000000000AD
:40034000000000000000000000000000000000000000000000000000000000000000000000000000000000000000000000000000000000000000000000000000000000007D
:40038000000000000000000000000000000000000000000001000000000000000000000000000000000000000000000000000000000000000000000000000000000000003C
:4003C0000000000000000000000000000000000000000000000000000000000000000000000000080000020000108000000000000000000000000000000000000000000063
:4004000000000000000000000000000000000000000000000000000000000000000000000000000000000000000000000000000000000000000000000004000508000000AB
:400440000520010000002800004100000400000100000100004028180000000000440008000000008000000800000000001000010000000000A800000020020100000000B7
:4004800000988000000000008108100000000000000000004118000000000000004000000000000000000000000000000000000000000000000000000000000000000000F2
:4004C000000000000000000049450000020000200590000500001000003000008008800000000000080000010000000000000000000000000000000027006F005900000072
:400500000000A000A00070000D000C000000F000100000000000000000000000000000000000000000000000000000000000000000000000000000000000000000000000F2
:40054000000000000000000000000000000000000000000000000000000000000000000000000000000000000000000000000000000000000000000000000000000000007B
:400580000000000000000000000000000000000000000000000000000000000080000000000000000000000000000000000000000000000000000000800080042A4000004D
:4005C00008484800200042202061000000400005019548100000002000002010687008090551000000004228802008010000A0090045001000450020000000000000000028
:400600000000000000000000000000000000000000000000000000000004100200000020000000002045020C0000000040400200000000000000000000000000000000008F
:400640000000001000000000000000000000000000000000000000000000000000000000000000000000000000000000000000000000000000000000FB00FF00BF000000B1
:400680000000FD00FF00FF0000000000000000004E0000000000000000000000000000000000000000000000000000000000000000000000000000000000000000000000F1
:4006C000000000000000000000000000000000000000000000000000000000000000000080000000000000200000000000000000000000000000000000000000000000005A
:400700000000000000000000000000000000000000000000000000000000000000000000000020001000000000000000000000000000000000000000000000200000000069
:400740000000000000000000000000000000000000000000000000000000000000000000000000000000000000000000000000000000000000000000000000000000000079
:4007800000000000000000008000000000000000000000000000000000000000000000000000000000000000000000000000000000000000000000000000000000000000B9
:4007C00000000000000000000000000000000000000000000000000000000000000000000000000000000000000000000000000000000000000000001000000000000000E9
:400800000000000000000000000000002000000000000000000000000000000000000000000000000000000000000000000000000000000000000000010000000000000097
:400840000419190018000000000B0B000000000000000000000000000000000000000000000000000000000000000000000000000000000000000000000000000000000014
:400880000000000000000000000000000000000000000000000000000000000000000000000000000000000000000000000000000000000000000000000000000000000038
:4008C00000000000000000000000000000000000000000000000000000000000000000000000000000000000000000000000000000000000000000000000000000000000F8
:4009000000000000000000000000000000000000000000000000000000000000000000000000000000000000000000000000000000000000000000000000000000000000B7
:400940000000000000000000000000000000000000000000000000000000000000000000000000000000000000000000000000000000000000000000000000000000000077
:0200000490006A
:0400000000004005B7
:0200000490105A
:04000000BC90ACAF55
:0200000490303A
:020000000CF101
:0200000490402A
:4000000000000000000000000000000000000000000000000000000000000000000000000000000000000000000000000000000000000000000000000000000000000000C0
:400040000000000000000000000000000000000000000000000000000000000000000000000000000000000000000000000000000000000000000000000000000000000080
:400080000000000000000000000000000000000000000000000000000000000000000000000000000000000000000000000000000000000000000000000000000000000040
:4000C0000000000000000000000000000000000000000000000000000000000000000000000000000000000000000000000000000000000000000000000000000000000000
:0200000490501A
:0C00000000012E16106900012E331D5A5D
:00000001FF